{
  "_format": "hh-sol-artifact-1",
  "contractName": "ClaimableNFT",
  "sourceName": "contracts/ClaimableNFT.sol",
  "abi": [
    {
      "inputs": [
        {
          "internalType": "string",
          "name": "name",
          "type": "string"
        },
        {
          "internalType": "string",
          "name": "symbol",
          "type": "string"
        },
        {
          "internalType": "uint256",
          "name": "_maxLoanThreshold",
          "type": "uint256"
        }
      ],
      "stateMutability": "nonpayable",
      "type": "constructor"
    },
    {
      "anonymous": false,
      "inputs": [
        {
          "indexed": true,
          "internalType": "address",
          "name": "owner",
          "type": "address"
        },
        {
          "indexed": true,
          "internalType": "address",
          "name": "approved",
          "type": "address"
        },
        {
          "indexed": true,
          "internalType": "uint256",
          "name": "tokenId",
          "type": "uint256"
        }
      ],
      "name": "Approval",
      "type": "event"
    },
    {
      "anonymous": false,
      "inputs": [
        {
          "indexed": true,
          "internalType": "address",
          "name": "owner",
          "type": "address"
        },
        {
          "indexed": true,
          "internalType": "address",
          "name": "operator",
          "type": "address"
        },
        {
          "indexed": false,
          "internalType": "bool",
          "name": "approved",
          "type": "bool"
        }
      ],
      "name": "ApprovalForAll",
      "type": "event"
    },
    {
      "anonymous": false,
      "inputs": [
        {
          "indexed": true,
          "internalType": "address",
          "name": "previousOwner",
          "type": "address"
        },
        {
          "indexed": true,
          "internalType": "address",
          "name": "newOwner",
          "type": "address"
        }
      ],
      "name": "OwnershipTransferred",
      "type": "event"
    },
    {
      "anonymous": false,
      "inputs": [
        {
          "indexed": false,
          "internalType": "address",
          "name": "account",
          "type": "address"
        }
      ],
      "name": "Paused",
      "type": "event"
    },
    {
      "anonymous": false,
      "inputs": [
        {
          "indexed": true,
          "internalType": "address",
          "name": "from",
          "type": "address"
        },
        {
          "indexed": true,
          "internalType": "address",
          "name": "to",
          "type": "address"
        },
        {
          "indexed": true,
          "internalType": "uint256",
          "name": "tokenId",
          "type": "uint256"
        }
      ],
      "name": "Transfer",
      "type": "event"
    },
    {
      "anonymous": false,
      "inputs": [
        {
          "indexed": false,
          "internalType": "address",
          "name": "account",
          "type": "address"
        }
      ],
      "name": "Unpaused",
      "type": "event"
    },
    {
      "inputs": [],
      "name": "MAX_LOAN_THRESHOLD",
      "outputs": [
        {
          "internalType": "uint256",
          "name": "",
          "type": "uint256"
        }
      ],
      "stateMutability": "view",
      "type": "function"
    },
    {
      "inputs": [],
      "name": "TRANSFER_REQUEST_ID",
      "outputs": [
        {
          "internalType": "uint64",
          "name": "",
          "type": "uint64"
        }
      ],
      "stateMutability": "view",
      "type": "function"
    },
    {
      "inputs": [
        {
          "internalType": "address",
          "name": "",
          "type": "address"
        }
      ],
      "name": "addressToId",
      "outputs": [
        {
          "internalType": "uint256",
          "name": "",
          "type": "uint256"
        }
      ],
      "stateMutability": "view",
      "type": "function"
    },
    {
      "inputs": [
        {
          "internalType": "address",
          "name": "to",
          "type": "address"
        },
        {
          "internalType": "uint256",
          "name": "tokenId",
          "type": "uint256"
        }
      ],
      "name": "approve",
      "outputs": [],
      "stateMutability": "nonpayable",
      "type": "function"
    },
    {
      "inputs": [
        {
          "internalType": "address",
          "name": "owner",
          "type": "address"
        }
      ],
      "name": "balanceOf",
      "outputs": [
        {
          "internalType": "uint256",
          "name": "",
          "type": "uint256"
        }
      ],
      "stateMutability": "view",
      "type": "function"
    },
    {
      "inputs": [
        {
          "internalType": "uint256",
          "name": "tokenId",
          "type": "uint256"
        }
      ],
      "name": "burn",
      "outputs": [],
      "stateMutability": "nonpayable",
      "type": "function"
    },
    {
      "inputs": [
        {
          "internalType": "uint256",
          "name": "tokenId",
          "type": "uint256"
        }
      ],
      "name": "getApproved",
      "outputs": [
        {
          "internalType": "address",
          "name": "",
          "type": "address"
        }
      ],
      "stateMutability": "view",
      "type": "function"
    },
    {
      "inputs": [
        {
          "internalType": "uint256",
          "name": "tokenId",
          "type": "uint256"
        }
      ],
      "name": "getRiskParams",
      "outputs": [
        {
          "components": [
            {
              "internalType": "uint256",
              "name": "notional",
              "type": "uint256"
            },
            {
              "internalType": "uint256",
              "name": "rate",
              "type": "uint256"
            }
          ],
          "internalType": "struct DataTypes.LoanParameters",
          "name": "",
          "type": "tuple"
        }
      ],
      "stateMutability": "view",
      "type": "function"
    },
    {
      "inputs": [
        {
          "internalType": "uint256",
          "name": "",
          "type": "uint256"
        }
      ],
      "name": "idToAddress",
      "outputs": [
        {
          "internalType": "address",
          "name": "",
          "type": "address"
        }
      ],
      "stateMutability": "view",
      "type": "function"
    },
    {
      "inputs": [
        {
          "internalType": "address",
          "name": "owner",
          "type": "address"
        },
        {
          "internalType": "address",
          "name": "operator",
          "type": "address"
        }
      ],
      "name": "isApprovedForAll",
      "outputs": [
        {
          "internalType": "bool",
          "name": "",
          "type": "bool"
        }
      ],
      "stateMutability": "view",
      "type": "function"
    },
    {
      "inputs": [],
      "name": "name",
      "outputs": [
        {
          "internalType": "string",
          "name": "",
          "type": "string"
        }
      ],
      "stateMutability": "view",
      "type": "function"
    },
    {
      "inputs": [],
      "name": "owner",
      "outputs": [
        {
          "internalType": "address",
          "name": "",
          "type": "address"
        }
      ],
      "stateMutability": "view",
      "type": "function"
    },
    {
      "inputs": [
        {
          "internalType": "uint256",
          "name": "tokenId",
          "type": "uint256"
        }
      ],
      "name": "ownerOf",
      "outputs": [
        {
          "internalType": "address",
          "name": "",
          "type": "address"
        }
      ],
      "stateMutability": "view",
      "type": "function"
    },
    {
      "inputs": [],
      "name": "pause",
      "outputs": [],
      "stateMutability": "nonpayable",
      "type": "function"
    },
    {
      "inputs": [],
      "name": "paused",
      "outputs": [
        {
          "internalType": "bool",
          "name": "",
          "type": "bool"
        }
      ],
      "stateMutability": "view",
      "type": "function"
    },
    {
      "inputs": [],
      "name": "renounceOwnership",
      "outputs": [],
      "stateMutability": "nonpayable",
      "type": "function"
    },
    {
      "inputs": [
        {
          "components": [
            {
              "internalType": "uint256",
              "name": "notional",
              "type": "uint256"
            },
            {
              "internalType": "uint256",
              "name": "rate",
              "type": "uint256"
            }
          ],
          "internalType": "struct DataTypes.LoanParameters",
          "name": "_loanParameters",
          "type": "tuple"
        }
      ],
      "name": "safeMint",
      "outputs": [
        {
          "internalType": "uint256",
          "name": "",
          "type": "uint256"
        }
      ],
      "stateMutability": "nonpayable",
      "type": "function"
    },
    {
      "inputs": [
        {
          "internalType": "address",
          "name": "from",
          "type": "address"
        },
        {
          "internalType": "address",
          "name": "to",
          "type": "address"
        },
        {
          "internalType": "uint256",
          "name": "tokenId",
          "type": "uint256"
        }
      ],
      "name": "safeTransferFrom",
      "outputs": [],
      "stateMutability": "nonpayable",
      "type": "function"
    },
    {
      "inputs": [
        {
          "internalType": "address",
          "name": "from",
          "type": "address"
        },
        {
          "internalType": "address",
          "name": "to",
          "type": "address"
        },
        {
          "internalType": "uint256",
          "name": "tokenId",
          "type": "uint256"
        },
        {
          "internalType": "bytes",
          "name": "data",
          "type": "bytes"
        }
      ],
      "name": "safeTransferFrom",
      "outputs": [],
      "stateMutability": "nonpayable",
      "type": "function"
    },
    {
      "inputs": [
        {
          "internalType": "address",
          "name": "operator",
          "type": "address"
        },
        {
          "internalType": "bool",
          "name": "approved",
          "type": "bool"
        }
      ],
      "name": "setApprovalForAll",
      "outputs": [],
      "stateMutability": "nonpayable",
      "type": "function"
    },
    {
      "inputs": [
        {
          "internalType": "bytes4",
          "name": "interfaceId",
          "type": "bytes4"
        }
      ],
      "name": "supportsInterface",
      "outputs": [
        {
          "internalType": "bool",
          "name": "",
          "type": "bool"
        }
      ],
      "stateMutability": "view",
      "type": "function"
    },
    {
      "inputs": [],
      "name": "symbol",
      "outputs": [
        {
          "internalType": "string",
          "name": "",
          "type": "string"
        }
      ],
      "stateMutability": "view",
      "type": "function"
    },
    {
      "inputs": [
        {
          "internalType": "uint256",
          "name": "index",
          "type": "uint256"
        }
      ],
      "name": "tokenByIndex",
      "outputs": [
        {
          "internalType": "uint256",
          "name": "",
          "type": "uint256"
        }
      ],
      "stateMutability": "view",
      "type": "function"
    },
    {
      "inputs": [
        {
          "internalType": "address",
          "name": "owner",
          "type": "address"
        },
        {
          "internalType": "uint256",
          "name": "index",
          "type": "uint256"
        }
      ],
      "name": "tokenOfOwnerByIndex",
      "outputs": [
        {
          "internalType": "uint256",
          "name": "",
          "type": "uint256"
        }
      ],
      "stateMutability": "view",
      "type": "function"
    },
    {
      "inputs": [
        {
          "internalType": "uint256",
          "name": "tokenId",
          "type": "uint256"
        }
      ],
      "name": "tokenURI",
      "outputs": [
        {
          "internalType": "string",
          "name": "",
          "type": "string"
        }
      ],
      "stateMutability": "view",
      "type": "function"
    },
    {
      "inputs": [],
      "name": "totalSupply",
      "outputs": [
        {
          "internalType": "uint256",
          "name": "",
          "type": "uint256"
        }
      ],
      "stateMutability": "view",
      "type": "function"
    },
    {
      "inputs": [
        {
          "internalType": "address",
          "name": "from",
          "type": "address"
        },
        {
          "internalType": "address",
          "name": "to",
          "type": "address"
        },
        {
          "internalType": "uint256",
          "name": "tokenId",
          "type": "uint256"
        }
      ],
      "name": "transferFrom",
      "outputs": [],
      "stateMutability": "nonpayable",
      "type": "function"
    },
    {
      "inputs": [
        {
          "internalType": "address",
          "name": "newOwner",
          "type": "address"
        }
      ],
      "name": "transferOwnership",
      "outputs": [],
      "stateMutability": "nonpayable",
      "type": "function"
    },
    {
      "inputs": [],
      "name": "unpause",
      "outputs": [],
      "stateMutability": "nonpayable",
      "type": "function"
    }
  ],
  "bytecode": "0x60806040523480156200001157600080fd5b506040516200427c3803806200427c833981810160405281019062000037919062000346565b828281600090816200004a919062000621565b5080600190816200005c919062000621565b5050506000600a60006101000a81548160ff0219169083151502179055506200009a6200008e620000aa60201b60201c565b620000b260201b60201c565b80600b8190555050505062000708565b600033905090565b6000600a60019054906101000a900473ffffffffffffffffffffffffffffffffffffffff16905081600a60016101000a81548173ffffffffffffffffffffffffffffffffffffffff021916908373ffffffffffffffffffffffffffffffffffffffff1602179055508173ffffffffffffffffffffffffffffffffffffffff168173ffffffffffffffffffffffffffffffffffffffff167f8be0079c531659141344cd1fd0a4f28419497f9722a3daafe3b4186f6b6457e060405160405180910390a35050565b6000604051905090565b600080fd5b600080fd5b600080fd5b600080fd5b6000601f19601f8301169050919050565b7f4e487b7100000000000000000000000000000000000000000000000000000000600052604160045260246000fd5b620001e18262000196565b810181811067ffffffffffffffff82111715620002035762000202620001a7565b5b80604052505050565b60006200021862000178565b9050620002268282620001d6565b919050565b600067ffffffffffffffff821115620002495762000248620001a7565b5b620002548262000196565b9050602081019050919050565b60005b838110156200028157808201518184015260208101905062000264565b60008484015250505050565b6000620002a46200029e846200022b565b6200020c565b905082815260208101848484011115620002c357620002c262000191565b5b620002d084828562000261565b509392505050565b600082601f830112620002f057620002ef6200018c565b5b8151620003028482602086016200028d565b91505092915050565b6000819050919050565b62000320816200030b565b81146200032c57600080fd5b50565b600081519050620003408162000315565b92915050565b60008060006060848603121562000362576200036162000182565b5b600084015167ffffffffffffffff81111562000383576200038262000187565b5b6200039186828701620002d8565b935050602084015167ffffffffffffffff811115620003b557620003b462000187565b5b620003c386828701620002d8565b9250506040620003d6868287016200032f565b9150509250925092565b600081519050919050565b7f4e487b7100000000000000000000000000000000000000000000000000000000600052602260045260246000fd5b600060028204905060018216806200043357607f821691505b602082108103620004495762000448620003eb565b5b50919050565b60008190508160005260206000209050919050565b60006020601f8301049050919050565b600082821b905092915050565b600060088302620004b37fffffffffffffffffffffffffffffffffffffffffffffffffffffffffffffffff8262000474565b620004bf868362000474565b95508019841693508086168417925050509392505050565b6000819050919050565b600062000502620004fc620004f6846200030b565b620004d7565b6200030b565b9050919050565b6000819050919050565b6200051e83620004e1565b620005366200052d8262000509565b84845462000481565b825550505050565b600090565b6200054d6200053e565b6200055a81848462000513565b505050565b5b8181101562000582576200057660008262000543565b60018101905062000560565b5050565b601f821115620005d1576200059b816200044f565b620005a68462000464565b81016020851015620005b6578190505b620005ce620005c58562000464565b8301826200055f565b50505b505050565b600082821c905092915050565b6000620005f660001984600802620005d6565b1980831691505092915050565b6000620006118383620005e3565b9150826002028217905092915050565b6200062c82620003e0565b67ffffffffffffffff811115620006485762000647620001a7565b5b6200065482546200041a565b6200066182828562000586565b600060209050601f83116001811462000699576000841562000684578287015190505b62000690858262000603565b86555062000700565b601f198416620006a9866200044f565b60005b82811015620006d357848901518255600182019150602085019450602081019050620006ac565b86831015620006f35784890151620006ef601f891682620005e3565b8355505b6001600288020188555050505b505050505050565b613b6480620007186000396000f3fe608060405234801561001057600080fd5b50600436106101cf5760003560e01c80636352211e11610104578063a22cb465116100a2578063cb0e0d7d11610071578063cb0e0d7d1461051c578063e5b1b46b1461054c578063e985e9c51461057c578063f2fde38b146105ac576101cf565b8063a22cb46514610496578063ad00ebca146104b2578063b88d4fde146104d0578063c87b56dd146104ec576101cf565b8063715018a6116100de578063715018a6146104465780638456cb59146104505780638da5cb5b1461045a57806395d89b4114610478576101cf565b80636352211e146103c857806363ec508f146103f857806370a0823114610416576101cf565b80632f745c591161017157806342966c681161014b57806342966c681461032e5780634f6ccce71461034a57806356e3fa011461037a5780635c975abb146103aa576101cf565b80632f745c59146102d85780633f4ba83a1461030857806342842e0e14610312576101cf565b8063095ea7b3116101ad578063095ea7b31461025257806318160ddd1461026e57806323b872dd1461028c5780632a2d0c47146102a8576101cf565b806301ffc9a7146101d457806306fdde0314610204578063081812fc14610222575b600080fd5b6101ee60048036038101906101e99190612822565b6105c8565b6040516101fb919061286a565b60405180910390f35b61020c6105da565b6040516102199190612915565b60405180910390f35b61023c6004803603810190610237919061296d565b61066c565b60405161024991906129db565b60405180910390f35b61026c60048036038101906102679190612a22565b6106b2565b005b6102766107c9565b6040516102839190612a71565b60405180910390f35b6102a660048036038101906102a19190612a8c565b6107d6565b005b6102c260048036038101906102bd919061296d565b610836565b6040516102cf91906129db565b60405180910390f35b6102f260048036038101906102ed9190612a22565b610869565b6040516102ff9190612a71565b60405180910390f35b61031061090e565b005b61032c60048036038101906103279190612a8c565b610920565b005b6103486004803603810190610343919061296d565b610940565b005b610364600480360381019061035f919061296d565b61099c565b6040516103719190612a71565b60405180910390f35b610394600480360381019061038f919061296d565b610a0d565b6040516103a19190612b1d565b60405180910390f35b6103b2610a4e565b6040516103bf919061286a565b60405180910390f35b6103e260048036038101906103dd919061296d565b610a65565b6040516103ef91906129db565b60405180910390f35b610400610aeb565b60405161040d9190612b5b565b60405180910390f35b610430600480360381019061042b9190612b76565b610af0565b60405161043d9190612a71565b60405180910390f35b61044e610ba7565b005b610458610bbb565b005b610462610bcd565b60405161046f91906129db565b60405180910390f35b610480610bf7565b60405161048d9190612915565b60405180910390f35b6104b060048036038101906104ab9190612bcf565b610c89565b005b6104ba610c9f565b6040516104c79190612a71565b60405180910390f35b6104ea60048036038101906104e59190612d44565b610ca5565b005b6105066004803603810190610501919061296d565b610d07565b6040516105139190612915565b60405180910390f35b61053660048036038101906105319190612b76565b610d6f565b6040516105439190612a71565b60405180910390f35b61056660048036038101906105619190612e1c565b610d87565b6040516105739190612a71565b60405180910390f35b61059660048036038101906105919190612e49565b610ec2565b6040516105a3919061286a565b60405180910390f35b6105c660048036038101906105c19190612b76565b610f56565b005b60006105d382610fd9565b9050919050565b6060600080546105e990612eb8565b80601f016020809104026020016040519081016040528092919081815260200182805461061590612eb8565b80156106625780601f1061063757610100808354040283529160200191610662565b820191906000526020600020905b81548152906001019060200180831161064557829003601f168201915b5050505050905090565b600061067782611053565b6004600083815260200190815260200160002060009054906101000a900473ffffffffffffffffffffffffffffffffffffffff169050919050565b60006106bd82610a65565b90508073ffffffffffffffffffffffffffffffffffffffff168373ffffffffffffffffffffffffffffffffffffffff160361072d576040517f08c379a000000000000000000000000000000000000000000000000000000000815260040161072490612f5b565b60405180910390fd5b8073ffffffffffffffffffffffffffffffffffffffff1661074c61109e565b73ffffffffffffffffffffffffffffffffffffffff16148061077b575061077a8161077561109e565b610ec2565b5b6107ba576040517f08c379a00000000000000000000000000000000000000000000000000000000081526004016107b190612fed565b60405180910390fd5b6107c483836110a6565b505050565b6000600880549050905090565b6107e76107e161109e565b8261115f565b610826576040517f08c379a000000000000000000000000000000000000000000000000000000000815260040161081d9061307f565b60405180910390fd5b6108318383836111f4565b505050565b600c6020528060005260406000206000915054906101000a900473ffffffffffffffffffffffffffffffffffffffff1681565b600061087483610af0565b82106108b5576040517f08c379a00000000000000000000000000000000000000000000000000000000081526004016108ac90613111565b60405180910390fd5b600660008473ffffffffffffffffffffffffffffffffffffffff1673ffffffffffffffffffffffffffffffffffffffff168152602001908152602001600020600083815260200190815260200160002054905092915050565b6109166114ed565b61091e61156b565b565b61093b83838360405180602001604052806000815250610ca5565b505050565b61095161094b61109e565b8261115f565b610990576040517f08c379a00000000000000000000000000000000000000000000000000000000081526004016109879061307f565b60405180910390fd5b610999816115ce565b50565b60006109a66107c9565b82106109e7576040517f08c379a00000000000000000000000000000000000000000000000000000000081526004016109de906131a3565b60405180910390fd5b600882815481106109fb576109fa6131c3565b5b90600052602060002001549050919050565b610a1561279c565b600e6000838152602001908152602001600020604051806040016040529081600082015481526020016001820154815250509050919050565b6000600a60009054906101000a900460ff16905090565b600080610a71836115da565b9050600073ffffffffffffffffffffffffffffffffffffffff168173ffffffffffffffffffffffffffffffffffffffff1603610ae2576040517f08c379a0000000000000000000000000000000000000000000000000000000008152600401610ad99061323e565b60405180910390fd5b80915050919050565b600181565b60008073ffffffffffffffffffffffffffffffffffffffff168273ffffffffffffffffffffffffffffffffffffffff1603610b60576040517f08c379a0000000000000000000000000000000000000000000000000000000008152600401610b57906132d0565b60405180910390fd5b600360008373ffffffffffffffffffffffffffffffffffffffff1673ffffffffffffffffffffffffffffffffffffffff168152602001908152602001600020549050919050565b610baf6114ed565b610bb96000611617565b565b610bc36114ed565b610bcb6116dd565b565b6000600a60019054906101000a900473ffffffffffffffffffffffffffffffffffffffff16905090565b606060018054610c0690612eb8565b80601f0160208091040260200160405190810160405280929190818152602001828054610c3290612eb8565b8015610c7f5780601f10610c5457610100808354040283529160200191610c7f565b820191906000526020600020905b815481529060010190602001808311610c6257829003601f168201915b5050505050905090565b610c9b610c9461109e565b8383611740565b5050565b600b5481565b610cb6610cb061109e565b8361115f565b610cf5576040517f08c379a0000000000000000000000000000000000000000000000000000000008152600401610cec9061307f565b60405180910390fd5b610d01848484846118ac565b50505050565b6060610d1282611053565b6000610d1c611908565b90506000815111610d3c5760405180602001604052806000815250610d67565b80610d468461191f565b604051602001610d5792919061332c565b6040516020818303038152906040525b915050919050565b600d6020528060005260406000206000915090505481565b6000600b5482600001511115610dd2576040517f08c379a0000000000000000000000000000000000000000000000000000000008152600401610dc99061339c565b60405180910390fd5b60106000610dde61109e565b73ffffffffffffffffffffffffffffffffffffffff1673ffffffffffffffffffffffffffffffffffffffff16815260200190815260200160002060009054906101000a900460ff16610e65576040517f08c379a0000000000000000000000000000000000000000000000000000000008152600401610e5c90613408565b60405180910390fd5b6000610e71600f6119ed565b9050610e7d600f6119fb565b82600e60008381526020019081526020016000206000820151816000015560208201518160010155905050610eb9610eb361109e565b82611a11565b80915050919050565b6000600560008473ffffffffffffffffffffffffffffffffffffffff1673ffffffffffffffffffffffffffffffffffffffff16815260200190815260200160002060008373ffffffffffffffffffffffffffffffffffffffff1673ffffffffffffffffffffffffffffffffffffffff16815260200190815260200160002060009054906101000a900460ff16905092915050565b610f5e6114ed565b600073ffffffffffffffffffffffffffffffffffffffff168173ffffffffffffffffffffffffffffffffffffffff1603610fcd576040517f08c379a0000000000000000000000000000000000000000000000000000000008152600401610fc49061349a565b60405180910390fd5b610fd681611617565b50565b60007f780e9d63000000000000000000000000000000000000000000000000000000007bffffffffffffffffffffffffffffffffffffffffffffffffffffffff1916827bffffffffffffffffffffffffffffffffffffffffffffffffffffffff1916148061104c575061104b82611a2f565b5b9050919050565b61105c81611b11565b61109b576040517f08c379a00000000000000000000000000000000000000000000000000000000081526004016110929061323e565b60405180910390fd5b50565b600033905090565b816004600083815260200190815260200160002060006101000a81548173ffffffffffffffffffffffffffffffffffffffff021916908373ffffffffffffffffffffffffffffffffffffffff160217905550808273ffffffffffffffffffffffffffffffffffffffff1661111983610a65565b73ffffffffffffffffffffffffffffffffffffffff167f8c5be1e5ebec7d5bd14f71427d1e84f3dd0314c0f7b2291e5b200ac8c7c3b92560405160405180910390a45050565b60008061116b83610a65565b90508073ffffffffffffffffffffffffffffffffffffffff168473ffffffffffffffffffffffffffffffffffffffff1614806111ad57506111ac8185610ec2565b5b806111eb57508373ffffffffffffffffffffffffffffffffffffffff166111d38461066c565b73ffffffffffffffffffffffffffffffffffffffff16145b91505092915050565b8273ffffffffffffffffffffffffffffffffffffffff1661121482610a65565b73ffffffffffffffffffffffffffffffffffffffff161461126a576040517f08c379a00000000000000000000000000000000000000000000000000000000081526004016112619061352c565b60405180910390fd5b600073ffffffffffffffffffffffffffffffffffffffff168273ffffffffffffffffffffffffffffffffffffffff16036112d9576040517f08c379a00000000000000000000000000000000000000000000000000000000081526004016112d0906135be565b60405180910390fd5b6112e68383836001611b52565b8273ffffffffffffffffffffffffffffffffffffffff1661130682610a65565b73ffffffffffffffffffffffffffffffffffffffff161461135c576040517f08c379a00000000000000000000000000000000000000000000000000000000081526004016113539061352c565b60405180910390fd5b6004600082815260200190815260200160002060006101000a81549073ffffffffffffffffffffffffffffffffffffffff02191690556001600360008573ffffffffffffffffffffffffffffffffffffffff1673ffffffffffffffffffffffffffffffffffffffff168152602001908152602001600020600082825403925050819055506001600360008473ffffffffffffffffffffffffffffffffffffffff1673ffffffffffffffffffffffffffffffffffffffff16815260200190815260200160002060008282540192505081905550816002600083815260200190815260200160002060006101000a81548173ffffffffffffffffffffffffffffffffffffffff021916908373ffffffffffffffffffffffffffffffffffffffff160217905550808273ffffffffffffffffffffffffffffffffffffffff168473ffffffffffffffffffffffffffffffffffffffff167fddf252ad1be2c89b69c2b068fc378daa952ba7f163c4a11628f55a4df523b3ef60405160405180910390a46114e88383836001611b6c565b505050565b6114f561109e565b73ffffffffffffffffffffffffffffffffffffffff16611513610bcd565b73ffffffffffffffffffffffffffffffffffffffff1614611569576040517f08c379a00000000000000000000000000000000000000000000000000000000081526004016115609061362a565b60405180910390fd5b565b611573611b72565b6000600a60006101000a81548160ff0219169083151502179055507f5db9ee0a495bf2e6ff9c91a7834c1ba4fdd244a5e8aa4e537bd38aeae4b073aa6115b761109e565b6040516115c491906129db565b60405180910390a1565b6115d781611bbb565b50565b60006002600083815260200190815260200160002060009054906101000a900473ffffffffffffffffffffffffffffffffffffffff169050919050565b6000600a60019054906101000a900473ffffffffffffffffffffffffffffffffffffffff16905081600a60016101000a81548173ffffffffffffffffffffffffffffffffffffffff021916908373ffffffffffffffffffffffffffffffffffffffff1602179055508173ffffffffffffffffffffffffffffffffffffffff168173ffffffffffffffffffffffffffffffffffffffff167f8be0079c531659141344cd1fd0a4f28419497f9722a3daafe3b4186f6b6457e060405160405180910390a35050565b6116e5611d09565b6001600a60006101000a81548160ff0219169083151502179055507f62e78cea01bee320cd4e420270b5ea74000d11b0c9f74754ebdbfc544b05a25861172961109e565b60405161173691906129db565b60405180910390a1565b8173ffffffffffffffffffffffffffffffffffffffff168373ffffffffffffffffffffffffffffffffffffffff16036117ae576040517f08c379a00000000000000000000000000000000000000000000000000000000081526004016117a590613696565b60405180910390fd5b80600560008573ffffffffffffffffffffffffffffffffffffffff1673ffffffffffffffffffffffffffffffffffffffff16815260200190815260200160002060008473ffffffffffffffffffffffffffffffffffffffff1673ffffffffffffffffffffffffffffffffffffffff16815260200190815260200160002060006101000a81548160ff0219169083151502179055508173ffffffffffffffffffffffffffffffffffffffff168373ffffffffffffffffffffffffffffffffffffffff167f17307eab39ab6107e8899845ad3d59bd9653f200f220920489ca2b5937696c318360405161189f919061286a565b60405180910390a3505050565b6118b78484846111f4565b6118c384848484611d53565b611902576040517f08c379a00000000000000000000000000000000000000000000000000000000081526004016118f990613728565b60405180910390fd5b50505050565b606060405180602001604052806000815250905090565b60606000600161192e84611eda565b01905060008167ffffffffffffffff81111561194d5761194c612c19565b5b6040519080825280601f01601f19166020018201604052801561197f5781602001600182028036833780820191505090505b509050600082602001820190505b6001156119e2578080600190039150507f3031323334353637383961626364656600000000000000000000000000000000600a86061a8153600a85816119d6576119d5613748565b5b0494506000850361198d575b819350505050919050565b600081600001549050919050565b6001816000016000828254019250508190555050565b611a2b82826040518060200160405280600081525061202d565b5050565b60007f80ac58cd000000000000000000000000000000000000000000000000000000007bffffffffffffffffffffffffffffffffffffffffffffffffffffffff1916827bffffffffffffffffffffffffffffffffffffffffffffffffffffffff19161480611afa57507f5b5e139f000000000000000000000000000000000000000000000000000000007bffffffffffffffffffffffffffffffffffffffffffffffffffffffff1916827bffffffffffffffffffffffffffffffffffffffffffffffffffffffff1916145b80611b0a5750611b0982612088565b5b9050919050565b60008073ffffffffffffffffffffffffffffffffffffffff16611b33836115da565b73ffffffffffffffffffffffffffffffffffffffff1614159050919050565b611b5a611d09565b611b66848484846120f2565b50505050565b50505050565b611b7a610a4e565b611bb9576040517f08c379a0000000000000000000000000000000000000000000000000000000008152600401611bb0906137c3565b60405180910390fd5b565b6000611bc682610a65565b9050611bd6816000846001611b52565b611bdf82610a65565b90506004600083815260200190815260200160002060006101000a81549073ffffffffffffffffffffffffffffffffffffffff02191690556001600360008373ffffffffffffffffffffffffffffffffffffffff1673ffffffffffffffffffffffffffffffffffffffff168152602001908152602001600020600082825403925050819055506002600083815260200190815260200160002060006101000a81549073ffffffffffffffffffffffffffffffffffffffff021916905581600073ffffffffffffffffffffffffffffffffffffffff168273ffffffffffffffffffffffffffffffffffffffff167fddf252ad1be2c89b69c2b068fc378daa952ba7f163c4a11628f55a4df523b3ef60405160405180910390a4611d05816000846001611b6c565b5050565b611d11610a4e565b15611d51576040517f08c379a0000000000000000000000000000000000000000000000000000000008152600401611d489061382f565b60405180910390fd5b565b6000611d748473ffffffffffffffffffffffffffffffffffffffff16612250565b15611ecd578373ffffffffffffffffffffffffffffffffffffffff1663150b7a02611d9d61109e565b8786866040518563ffffffff1660e01b8152600401611dbf94939291906138a4565b6020604051808303816000875af1925050508015611dfb57506040513d601f19601f82011682018060405250810190611df89190613905565b60015b611e7d573d8060008114611e2b576040519150601f19603f3d011682016040523d82523d6000602084013e611e30565b606091505b506000815103611e75576040517f08c379a0000000000000000000000000000000000000000000000000000000008152600401611e6c90613728565b60405180910390fd5b805181602001fd5b63150b7a0260e01b7bffffffffffffffffffffffffffffffffffffffffffffffffffffffff1916817bffffffffffffffffffffffffffffffffffffffffffffffffffffffff191614915050611ed2565b600190505b949350505050565b600080600090507a184f03e93ff9f4daa797ed6e38ed64bf6a1f0100000000000000008310611f38577a184f03e93ff9f4daa797ed6e38ed64bf6a1f0100000000000000008381611f2e57611f2d613748565b5b0492506040810190505b6d04ee2d6d415b85acef81000000008310611f75576d04ee2d6d415b85acef81000000008381611f6b57611f6a613748565b5b0492506020810190505b662386f26fc100008310611fa457662386f26fc100008381611f9a57611f99613748565b5b0492506010810190505b6305f5e1008310611fcd576305f5e1008381611fc357611fc2613748565b5b0492506008810190505b6127108310611ff2576127108381611fe857611fe7613748565b5b0492506004810190505b60648310612015576064838161200b5761200a613748565b5b0492506002810190505b600a8310612024576001810190505b80915050919050565b6120378383612273565b6120446000848484611d53565b612083576040517f08c379a000000000000000000000000000000000000000000000000000000000815260040161207a90613728565b60405180910390fd5b505050565b60007f01ffc9a7000000000000000000000000000000000000000000000000000000007bffffffffffffffffffffffffffffffffffffffffffffffffffffffff1916827bffffffffffffffffffffffffffffffffffffffffffffffffffffffff1916149050919050565b6120fe84848484612490565b6001811115612142576040517f08c379a0000000000000000000000000000000000000000000000000000000008152600401612139906139a4565b60405180910390fd5b6000829050600073ffffffffffffffffffffffffffffffffffffffff168573ffffffffffffffffffffffffffffffffffffffff16036121895761218481612496565b6121c8565b8373ffffffffffffffffffffffffffffffffffffffff168573ffffffffffffffffffffffffffffffffffffffff16146121c7576121c685826124df565b5b5b600073ffffffffffffffffffffffffffffffffffffffff168473ffffffffffffffffffffffffffffffffffffffff160361220a576122058161264c565b612249565b8473ffffffffffffffffffffffffffffffffffffffff168473ffffffffffffffffffffffffffffffffffffffff161461224857612247848261271d565b5b5b5050505050565b6000808273ffffffffffffffffffffffffffffffffffffffff163b119050919050565b600073ffffffffffffffffffffffffffffffffffffffff168273ffffffffffffffffffffffffffffffffffffffff16036122e2576040517f08c379a00000000000000000000000000000000000000000000000000000000081526004016122d990613a10565b60405180910390fd5b6122eb81611b11565b1561232b576040517f08c379a000000000000000000000000000000000000000000000000000000000815260040161232290613a7c565b60405180910390fd5b612339600083836001611b52565b61234281611b11565b15612382576040517f08c379a000000000000000000000000000000000000000000000000000000000815260040161237990613a7c565b60405180910390fd5b6001600360008473ffffffffffffffffffffffffffffffffffffffff1673ffffffffffffffffffffffffffffffffffffffff16815260200190815260200160002060008282540192505081905550816002600083815260200190815260200160002060006101000a81548173ffffffffffffffffffffffffffffffffffffffff021916908373ffffffffffffffffffffffffffffffffffffffff160217905550808273ffffffffffffffffffffffffffffffffffffffff16600073ffffffffffffffffffffffffffffffffffffffff167fddf252ad1be2c89b69c2b068fc378daa952ba7f163c4a11628f55a4df523b3ef60405160405180910390a461248c600083836001611b6c565b5050565b50505050565b6008805490506009600083815260200190815260200160002081905550600881908060018154018082558091505060019003906000526020600020016000909190919091505550565b600060016124ec84610af0565b6124f69190613acb565b90506000600760008481526020019081526020016000205490508181146125db576000600660008673ffffffffffffffffffffffffffffffffffffffff1673ffffffffffffffffffffffffffffffffffffffff168152602001908152602001600020600084815260200190815260200160002054905080600660008773ffffffffffffffffffffffffffffffffffffffff1673ffffffffffffffffffffffffffffffffffffffff168152602001908152602001600020600084815260200190815260200160002081905550816007600083815260200190815260200160002081905550505b6007600084815260200190815260200160002060009055600660008573ffffffffffffffffffffffffffffffffffffffff1673ffffffffffffffffffffffffffffffffffffffff16815260200190815260200160002060008381526020019081526020016000206000905550505050565b600060016008805490506126609190613acb565b90506000600960008481526020019081526020016000205490506000600883815481106126905761268f6131c3565b5b9060005260206000200154905080600883815481106126b2576126b16131c3565b5b90600052602060002001819055508160096000838152602001908152602001600020819055506009600085815260200190815260200160002060009055600880548061270157612700613aff565b5b6001900381819060005260206000200160009055905550505050565b600061272883610af0565b905081600660008573ffffffffffffffffffffffffffffffffffffffff1673ffffffffffffffffffffffffffffffffffffffff168152602001908152602001600020600083815260200190815260200160002081905550806007600084815260200190815260200160002081905550505050565b604051806040016040528060008152602001600081525090565b6000604051905090565b600080fd5b600080fd5b60007fffffffff0000000000000000000000000000000000000000000000000000000082169050919050565b6127ff816127ca565b811461280a57600080fd5b50565b60008135905061281c816127f6565b92915050565b600060208284031215612838576128376127c0565b5b60006128468482850161280d565b91505092915050565b60008115159050919050565b6128648161284f565b82525050565b600060208201905061287f600083018461285b565b92915050565b600081519050919050565b600082825260208201905092915050565b60005b838110156128bf5780820151818401526020810190506128a4565b60008484015250505050565b6000601f19601f8301169050919050565b60006128e782612885565b6128f18185612890565b93506129018185602086016128a1565b61290a816128cb565b840191505092915050565b6000602082019050818103600083015261292f81846128dc565b905092915050565b6000819050919050565b61294a81612937565b811461295557600080fd5b50565b60008135905061296781612941565b92915050565b600060208284031215612983576129826127c0565b5b600061299184828501612958565b91505092915050565b600073ffffffffffffffffffffffffffffffffffffffff82169050919050565b60006129c58261299a565b9050919050565b6129d5816129ba565b82525050565b60006020820190506129f060008301846129cc565b92915050565b6129ff816129ba565b8114612a0a57600080fd5b50565b600081359050612a1c816129f6565b92915050565b60008060408385031215612a3957612a386127c0565b5b6000612a4785828601612a0d565b9250506020612a5885828601612958565b9150509250929050565b612a6b81612937565b82525050565b6000602082019050612a866000830184612a62565b92915050565b600080600060608486031215612aa557612aa46127c0565b5b6000612ab386828701612a0d565b9350506020612ac486828701612a0d565b9250506040612ad586828701612958565b9150509250925092565b612ae881612937565b82525050565b604082016000820151612b046000850182612adf565b506020820151612b176020850182612adf565b50505050565b6000604082019050612b326000830184612aee565b92915050565b600067ffffffffffffffff82169050919050565b612b5581612b38565b82525050565b6000602082019050612b706000830184612b4c565b92915050565b600060208284031215612b8c57612b8b6127c0565b5b6000612b9a84828501612a0d565b91505092915050565b612bac8161284f565b8114612bb757600080fd5b50565b600081359050612bc981612ba3565b92915050565b60008060408385031215612be657612be56127c0565b5b6000612bf485828601612a0d565b9250506020612c0585828601612bba565b9150509250929050565b600080fd5b600080fd5b7f4e487b7100000000000000000000000000000000000000000000000000000000600052604160045260246000fd5b612c51826128cb565b810181811067ffffffffffffffff82111715612c7057612c6f612c19565b5b80604052505050565b6000612c836127b6565b9050612c8f8282612c48565b919050565b600067ffffffffffffffff821115612caf57612cae612c19565b5b612cb8826128cb565b9050602081019050919050565b82818337600083830152505050565b6000612ce7612ce284612c94565b612c79565b905082815260208101848484011115612d0357612d02612c14565b5b612d0e848285612cc5565b509392505050565b600082601f830112612d2b57612d2a612c0f565b5b8135612d3b848260208601612cd4565b91505092915050565b60008060008060808587031215612d5e57612d5d6127c0565b5b6000612d6c87828801612a0d565b9450506020612d7d87828801612a0d565b9350506040612d8e87828801612958565b925050606085013567ffffffffffffffff811115612daf57612dae6127c5565b5b612dbb87828801612d16565b91505092959194509250565b600080fd5b600060408284031215612de257612de1612dc7565b5b612dec6040612c79565b90506000612dfc84828501612958565b6000830152506020612e1084828501612958565b60208301525092915050565b600060408284031215612e3257612e316127c0565b5b6000612e4084828501612dcc565b91505092915050565b60008060408385031215612e6057612e5f6127c0565b5b6000612e6e85828601612a0d565b9250506020612e7f85828601612a0d565b9150509250929050565b7f4e487b7100000000000000000000000000000000000000000000000000000000600052602260045260246000fd5b60006002820490506001821680612ed057607f821691505b602082108103612ee357612ee2612e89565b5b50919050565b7f4552433732313a20617070726f76616c20746f2063757272656e74206f776e6560008201527f7200000000000000000000000000000000000000000000000000000000000000602082015250565b6000612f45602183612890565b9150612f5082612ee9565b604082019050919050565b60006020820190508181036000830152612f7481612f38565b9050919050565b7f4552433732313a20617070726f76652063616c6c6572206973206e6f7420746f60008201527f6b656e206f776e6572206f7220617070726f76656420666f7220616c6c000000602082015250565b6000612fd7603d83612890565b9150612fe282612f7b565b604082019050919050565b6000602082019050818103600083015261300681612fca565b9050919050565b7f4552433732313a2063616c6c6572206973206e6f7420746f6b656e206f776e6560008201527f72206f7220617070726f76656400000000000000000000000000000000000000602082015250565b6000613069602d83612890565b91506130748261300d565b604082019050919050565b600060208201905081810360008301526130988161305c565b9050919050565b7f455243373231456e756d657261626c653a206f776e657220696e646578206f7560008201527f74206f6620626f756e6473000000000000000000000000000000000000000000602082015250565b60006130fb602b83612890565b91506131068261309f565b604082019050919050565b6000602082019050818103600083015261312a816130ee565b9050919050565b7f455243373231456e756d657261626c653a20676c6f62616c20696e646578206f60008201527f7574206f6620626f756e64730000000000000000000000000000000000000000602082015250565b600061318d602c83612890565b915061319882613131565b604082019050919050565b600060208201905081810360008301526131bc81613180565b9050919050565b7f4e487b7100000000000000000000000000000000000000000000000000000000600052603260045260246000fd5b7f4552433732313a20696e76616c696420746f6b656e2049440000000000000000600082015250565b6000613228601883612890565b9150613233826131f2565b602082019050919050565b600060208201905081810360008301526132578161321b565b9050919050565b7f4552433732313a2061646472657373207a65726f206973206e6f74206120766160008201527f6c6964206f776e65720000000000000000000000000000000000000000000000602082015250565b60006132ba602983612890565b91506132c58261325e565b604082019050919050565b600060208201905081810360008301526132e9816132ad565b9050919050565b600081905092915050565b600061330682612885565b61331081856132f0565b93506133208185602086016128a1565b80840191505092915050565b600061333882856132fb565b915061334482846132fb565b91508190509392505050565b7f4d6178206c6f616e206578636565646564000000000000000000000000000000600082015250565b6000613386601183612890565b915061339182613350565b602082019050919050565b600060208201905081810360008301526133b581613379565b9050919050565b7f4e6f742076616c696420636c61696d20666f7220746869732061646472657373600082015250565b60006133f2602083612890565b91506133fd826133bc565b602082019050919050565b60006020820190508181036000830152613421816133e5565b9050919050565b7f4f776e61626c653a206e6577206f776e657220697320746865207a65726f206160008201527f6464726573730000000000000000000000000000000000000000000000000000602082015250565b6000613484602683612890565b915061348f82613428565b604082019050919050565b600060208201905081810360008301526134b381613477565b9050919050565b7f4552433732313a207472616e736665722066726f6d20696e636f72726563742060008201527f6f776e6572000000000000000000000000000000000000000000000000000000602082015250565b6000613516602583612890565b9150613521826134ba565b604082019050919050565b6000602082019050818103600083015261354581613509565b9050919050565b7f4552433732313a207472616e7366657220746f20746865207a65726f2061646460008201527f7265737300000000000000000000000000000000000000000000000000000000602082015250565b60006135a8602483612890565b91506135b38261354c565b604082019050919050565b600060208201905081810360008301526135d78161359b565b9050919050565b7f4f776e61626c653a2063616c6c6572206973206e6f7420746865206f776e6572600082015250565b6000613614602083612890565b915061361f826135de565b602082019050919050565b6000602082019050818103600083015261364381613607565b9050919050565b7f4552433732313a20617070726f766520746f2063616c6c657200000000000000600082015250565b6000613680601983612890565b915061368b8261364a565b602082019050919050565b600060208201905081810360008301526136af81613673565b9050919050565b7f4552433732313a207472616e7366657220746f206e6f6e20455243373231526560008201527f63656976657220696d706c656d656e7465720000000000000000000000000000602082015250565b6000613712603283612890565b915061371d826136b6565b604082019050919050565b6000602082019050818103600083015261374181613705565b9050919050565b7f4e487b7100000000000000000000000000000000000000000000000000000000600052601260045260246000fd5b7f5061757361626c653a206e6f7420706175736564000000000000000000000000600082015250565b60006137ad601483612890565b91506137b882613777565b602082019050919050565b600060208201905081810360008301526137dc816137a0565b9050919050565b7f5061757361626c653a2070617573656400000000000000000000000000000000600082015250565b6000613819601083612890565b9150613824826137e3565b602082019050919050565b600060208201905081810360008301526138488161380c565b9050919050565b600081519050919050565b600082825260208201905092915050565b60006138768261384f565b613880818561385a565b93506138908185602086016128a1565b613899816128cb565b840191505092915050565b60006080820190506138b960008301876129cc565b6138c660208301866129cc565b6138d36040830185612a62565b81810360608301526138e5818461386b565b905095945050505050565b6000815190506138ff816127f6565b92915050565b60006020828403121561391b5761391a6127c0565b5b6000613929848285016138f0565b91505092915050565b7f455243373231456e756d657261626c653a20636f6e736563757469766520747260008201527f616e7366657273206e6f7420737570706f727465640000000000000000000000602082015250565b600061398e603583612890565b915061399982613932565b604082019050919050565b600060208201905081810360008301526139bd81613981565b9050919050565b7f4552433732313a206d696e7420746f20746865207a65726f2061646472657373600082015250565b60006139fa602083612890565b9150613a05826139c4565b602082019050919050565b60006020820190508181036000830152613a29816139ed565b9050919050565b7f4552433732313a20746f6b656e20616c7265616479206d696e74656400000000600082015250565b6000613a66601c83612890565b9150613a7182613a30565b602082019050919050565b60006020820190508181036000830152613a9581613a59565b9050919050565b7f4e487b7100000000000000000000000000000000000000000000000000000000600052601160045260246000fd5b6000613ad682612937565b9150613ae183612937565b9250828203905081811115613af957613af8613a9c565b5b92915050565b7f4e487b7100000000000000000000000000000000000000000000000000000000600052603160045260246000fdfea2646970667358221220d9fa5e3258c1d52e7588cad5e3983c322506c6968804e6b7d74802c348611ce064736f6c63430008120033",
  "linkReferences": {},
  "deployedLinkReferences": {}
}